{
  "contractName": "main",
  "abi": [
    {
      "anonymous": false,
      "inputs": [
        {
          "indexed": true,
          "internalType": "address",
          "name": "account",
          "type": "address"
        }
      ],
      "name": "DistributorAdded",
      "type": "event"
    },
    {
      "anonymous": false,
      "inputs": [
        {
          "indexed": true,
          "internalType": "address",
          "name": "account",
          "type": "address"
        }
      ],
      "name": "DistributorRemoved",
      "type": "event"
    },
    {
      "anonymous": false,
      "inputs": [
        {
          "indexed": false,
          "internalType": "string",
          "name": "_batchno",
          "type": "string"
        }
      ],
      "name": "Made",
      "type": "event"
    },
    {
      "anonymous": false,
      "inputs": [
        {
          "indexed": true,
          "internalType": "address",
          "name": "account",
          "type": "address"
        }
      ],
      "name": "ManufacturerAdded",
      "type": "event"
    },
    {
      "anonymous": false,
      "inputs": [
        {
          "indexed": true,
          "internalType": "address",
          "name": "account",
          "type": "address"
        }
      ],
      "name": "ManufacturerRemoved",
      "type": "event"
    },
    {
      "anonymous": false,
      "inputs": [
        {
          "indexed": false,
          "internalType": "string",
          "name": "_batchno",
          "type": "string"
        }
      ],
      "name": "Packed",
      "type": "event"
    },
    {
      "anonymous": false,
      "inputs": [
        {
          "indexed": false,
          "internalType": "string",
          "name": "_batchno",
          "type": "string"
        }
      ],
      "name": "Sold",
      "type": "event"
    },
    {
      "anonymous": false,
      "inputs": [
        {
          "indexed": true,
          "internalType": "address",
          "name": "account",
          "type": "address"
        }
      ],
      "name": "UserAdded",
      "type": "event"
    },
    {
      "anonymous": false,
      "inputs": [
        {
          "indexed": true,
          "internalType": "address",
          "name": "account",
          "type": "address"
        }
      ],
      "name": "UserRemoved",
      "type": "event"
    },
    {
      "constant": false,
      "inputs": [
        {
          "internalType": "address",
          "name": "account",
          "type": "address"
        }
      ],
      "name": "addDistributor",
      "outputs": [],
      "payable": false,
      "stateMutability": "nonpayable",
      "type": "function"
    },
    {
      "constant": false,
      "inputs": [
        {
          "internalType": "address",
          "name": "account",
          "type": "address"
        }
      ],
      "name": "addManufacturer",
      "outputs": [],
      "payable": false,
      "stateMutability": "nonpayable",
      "type": "function"
    },
    {
      "constant": false,
      "inputs": [
        {
          "internalType": "address",
          "name": "account",
          "type": "address"
        }
      ],
      "name": "addUser",
      "outputs": [],
      "payable": false,
      "stateMutability": "nonpayable",
      "type": "function"
    },
    {
      "constant": true,
      "inputs": [
        {
          "internalType": "address",
          "name": "account",
          "type": "address"
        }
      ],
      "name": "isDistributor",
      "outputs": [
        {
          "internalType": "bool",
          "name": "",
          "type": "bool"
        }
      ],
      "payable": false,
      "stateMutability": "view",
      "type": "function"
    },
    {
      "constant": true,
      "inputs": [
        {
          "internalType": "address",
          "name": "account",
          "type": "address"
        }
      ],
      "name": "isManufacturer",
      "outputs": [
        {
          "internalType": "bool",
          "name": "",
          "type": "bool"
        }
      ],
      "payable": false,
      "stateMutability": "view",
      "type": "function"
    },
    {
      "constant": true,
      "inputs": [
        {
          "internalType": "address",
          "name": "account",
          "type": "address"
        }
      ],
      "name": "isUser",
      "outputs": [
        {
          "internalType": "bool",
          "name": "",
          "type": "bool"
        }
      ],
      "payable": false,
      "stateMutability": "view",
      "type": "function"
    },
    {
      "constant": false,
      "inputs": [],
      "name": "renounceDistributor",
      "outputs": [],
      "payable": false,
      "stateMutability": "nonpayable",
      "type": "function"
    },
    {
      "constant": false,
      "inputs": [],
      "name": "renounceManufacturer",
      "outputs": [],
      "payable": false,
      "stateMutability": "nonpayable",
      "type": "function"
    },
    {
      "constant": false,
      "inputs": [],
      "name": "renounceUser",
      "outputs": [],
      "payable": false,
      "stateMutability": "nonpayable",
      "type": "function"
    },
    {
      "constant": false,
      "inputs": [
        {
          "internalType": "string",
          "name": "_batchno",
          "type": "string"
        },
        {
          "internalType": "string",
          "name": "_medicineName",
          "type": "string"
        },
        {
          "internalType": "string",
          "name": "_dosage",
          "type": "string"
        },
        {
          "internalType": "address",
          "name": "_originManufacturerID",
          "type": "address"
        },
        {
          "internalType": "address",
          "name": "_ownerID",
          "type": "address"
        },
        {
          "internalType": "string",
          "name": "_FactoryName",
          "type": "string"
        },
        {
          "internalType": "string",
          "name": "_mfgdate",
          "type": "string"
        },
        {
          "internalType": "string",
          "name": "_expdate",
          "type": "string"
        },
        {
          "internalType": "enum main.State",
          "name": "",
          "type": "uint8"
        },
        {
          "internalType": "address",
          "name": "_distributorID",
          "type": "address"
        },
        {
          "internalType": "address",
          "name": "_userID",
          "type": "address"
        }
      ],
      "name": "makeMedicine",
      "outputs": [],
      "payable": false,
      "stateMutability": "nonpayable",
      "type": "function"
    },
    {
      "constant": false,
      "inputs": [
        {
          "internalType": "string",
          "name": "_batchno",
          "type": "string"
        }
      ],
      "name": "packMedicine",
      "outputs": [],
      "payable": false,
      "stateMutability": "nonpayable",
      "type": "function"
    },
    {
      "constant": false,
      "inputs": [
        {
          "internalType": "string",
          "name": "_batchno",
          "type": "string"
        }
      ],
      "name": "receiveMedicine",
      "outputs": [],
      "payable": false,
      "stateMutability": "nonpayable",
      "type": "function"
    },
    {
      "constant": true,
      "inputs": [
        {
          "internalType": "string",
          "name": "_batchno",
          "type": "string"
        }
      ],
      "name": "fetchMedicineBufferOne",
      "outputs": [
        {
          "internalType": "string",
          "name": "batchno",
          "type": "string"
        },
        {
          "internalType": "string",
          "name": "medicineName",
          "type": "string"
        },
        {
          "internalType": "address",
          "name": "ownerID",
          "type": "address"
        },
        {
          "internalType": "address",
          "name": "originManufacturerID",
          "type": "address"
        },
        {
          "internalType": "string",
          "name": "dosage",
          "type": "string"
        },
        {
          "internalType": "enum main.State",
          "name": "medicineState",
          "type": "uint8"
        }
      ],
      "payable": false,
      "stateMutability": "view",
      "type": "function"
    },
    {
      "constant": true,
      "inputs": [
        {
          "internalType": "string",
          "name": "_batchno",
          "type": "string"
        }
      ],
      "name": "fetchMedicineBufferTwo",
      "outputs": [
        {
          "internalType": "string",
          "name": "batchno",
          "type": "string"
        },
        {
          "internalType": "string",
          "name": "FactoryName",
          "type": "string"
        },
        {
          "internalType": "string",
          "name": "mfgdate",
          "type": "string"
        },
        {
          "internalType": "string",
          "name": "expdate",
          "type": "string"
        },
        {
          "internalType": "address",
          "name": "distributorID",
          "type": "address"
        },
        {
          "internalType": "address",
          "name": "userID",
          "type": "address"
        }
      ],
      "payable": false,
      "stateMutability": "view",
      "type": "function"
    }
  ],
  "bytecode": "0x608060405262000015336200003d60201b60201c565b62000026336200009b60201b60201c565b6200003733620000f960201b60201c565b620002a0565b620000556000826200015760201b6200223b1760201c565b8073ffffffffffffffffffffffffffffffffffffffff167f19ef9a4877199f89440a26acb26895ec02ed86f2df1aeaa90dc18041b892f71f60405160405180910390a250565b620000b36001826200015760201b6200223b1760201c565b8073ffffffffffffffffffffffffffffffffffffffff167f561138658ca49a8540dc70dcfe64c9026c1c5b9344642242dd6562970f9c127860405160405180910390a250565b620001116002826200015760201b6200223b1760201c565b8073ffffffffffffffffffffffffffffffffffffffff167fddbf200aa634dc3fb81cfd68583dd1040d1c751d335e1d86b631bde3e977fea860405160405180910390a250565b600073ffffffffffffffffffffffffffffffffffffffff168173ffffffffffffffffffffffffffffffffffffffff1614156200019257600080fd5b620001a482826200020d60201b60201c565b15620001af57600080fd5b60018260000160008373ffffffffffffffffffffffffffffffffffffffff1673ffffffffffffffffffffffffffffffffffffffff16815260200190815260200160002060006101000a81548160ff0219169083151502179055505050565b60008073ffffffffffffffffffffffffffffffffffffffff168273ffffffffffffffffffffffffffffffffffffffff1614156200024957600080fd5b8260000160008373ffffffffffffffffffffffffffffffffffffffff1673ffffffffffffffffffffffffffffffffffffffff16815260200190815260200160002060009054906101000a900460ff16905092915050565b61252980620002b06000396000f3fe608060405234801561001057600080fd5b50600436106100ea5760003560e01c80636fd0ab411161008c578063de07f34e11610066578063de07f34e146108f9578063e5e93deb14610903578063eaef4d2c1461090d578063fb8868ae14610d49576100ea565b80636fd0ab41146105d25780637250e224146108595780638f0c86fa1461089d576100ea565b8063421b2d8b116100c8578063421b2d8b146104855780635f1d5a8d146104c95780635f8a5afa14610584578063644241db146105c8576100ea565b80630101b97d146100ef57806317d4a491146103cd5780634209fff114610429575b600080fd5b6101a86004803603602081101561010557600080fd5b810190808035906020019064010000000081111561012257600080fd5b82018360208201111561013457600080fd5b8035906020019184600183028401116401000000008311171561015657600080fd5b91908080601f016020809104026020016040519081016040528093929190818152602001838380828437600081840152601f19601f820116905080830192505050505050509192919290505050610e04565b60405180806020018060200180602001806020018773ffffffffffffffffffffffffffffffffffffffff1673ffffffffffffffffffffffffffffffffffffffff1681526020018673ffffffffffffffffffffffffffffffffffffffff1673ffffffffffffffffffffffffffffffffffffffff16815260200185810385528b818151815260200191508051906020019080838360005b8381101561025857808201518184015260208101905061023d565b50505050905090810190601f1680156102855780820380516001836020036101000a031916815260200191505b5085810384528a818151815260200191508051906020019080838360005b838110156102be5780820151818401526020810190506102a3565b50505050905090810190601f1680156102eb5780820380516001836020036101000a031916815260200191505b50858103835289818151815260200191508051906020019080838360005b83811015610324578082015181840152602081019050610309565b50505050905090810190601f1680156103515780820380516001836020036101000a031916815260200191505b50858103825288818151815260200191508051906020019080838360005b8381101561038a57808201518184015260208101905061036f565b50505050905090810190601f1680156103b75780820380516001836020036101000a031916815260200191505b509a505050505050505050505060405180910390f35b61040f600480360360208110156103e357600080fd5b81019080803573ffffffffffffffffffffffffffffffffffffffff16906020019092919050505061135c565b604051808215151515815260200191505060405180910390f35b61046b6004803603602081101561043f57600080fd5b81019080803573ffffffffffffffffffffffffffffffffffffffff169060200190929190505050611370565b604051808215151515815260200191505060405180910390f35b6104c76004803603602081101561049b57600080fd5b81019080803573ffffffffffffffffffffffffffffffffffffffff169060200190929190505050611384565b005b610582600480360360208110156104df57600080fd5b81019080803590602001906401000000008111156104fc57600080fd5b82018360208201111561050e57600080fd5b8035906020019184600183028401116401000000008311171561053057600080fd5b91908080601f016020809104026020016040519081016040528093929190818152602001838380828437600081840152601f19601f8201169050808301925050505050505091929192905050506113a2565b005b6105c66004803603602081101561059a57600080fd5b81019080803573ffffffffffffffffffffffffffffffffffffffff1690602001909291905050506114e1565b005b6105d06114ff565b005b61068b600480360360208110156105e857600080fd5b810190808035906020019064010000000081111561060557600080fd5b82018360208201111561061757600080fd5b8035906020019184600183028401116401000000008311171561063957600080fd5b91908080601f016020809104026020016040519081016040528093929190818152602001838380828437600081840152601f19601f82011690508083019250505050505050919291929050505061150a565b6040518080602001806020018773ffffffffffffffffffffffffffffffffffffffff1673ffffffffffffffffffffffffffffffffffffffff1681526020018673ffffffffffffffffffffffffffffffffffffffff1673ffffffffffffffffffffffffffffffffffffffff1681526020018060200185600281111561070b57fe5b60ff16815260200184810384528a818151815260200191508051906020019080838360005b8381101561074b578082015181840152602081019050610730565b50505050905090810190601f1680156107785780820380516001836020036101000a031916815260200191505b50848103835289818151815260200191508051906020019080838360005b838110156107b1578082015181840152602081019050610796565b50505050905090810190601f1680156107de5780820380516001836020036101000a031916815260200191505b50848103825286818151815260200191508051906020019080838360005b838110156108175780820151818401526020810190506107fc565b50505050905090810190601f1680156108445780820380516001836020036101000a031916815260200191505b50995050505050505050505060405180910390f35b61089b6004803603602081101561086f57600080fd5b81019080803573ffffffffffffffffffffffffffffffffffffffff1690602001909291905050506119d5565b005b6108df600480360360208110156108b357600080fd5b81019080803573ffffffffffffffffffffffffffffffffffffffff1690602001909291905050506119f3565b604051808215151515815260200191505060405180910390f35b610901611a07565b005b61090b611a12565b005b610d47600480360361016081101561092457600080fd5b810190808035906020019064010000000081111561094157600080fd5b82018360208201111561095357600080fd5b8035906020019184600183028401116401000000008311171561097557600080fd5b91908080601f016020809104026020016040519081016040528093929190818152602001838380828437600081840152601f19601f820116905080830192505050505050509192919290803590602001906401000000008111156109d857600080fd5b8201836020820111156109ea57600080fd5b80359060200191846001830284011164010000000083111715610a0c57600080fd5b91908080601f016020809104026020016040519081016040528093929190818152602001838380828437600081840152601f19601f82011690508083019250505050505050919291929080359060200190640100000000811115610a6f57600080fd5b820183602082011115610a8157600080fd5b80359060200191846001830284011164010000000083111715610aa357600080fd5b91908080601f016020809104026020016040519081016040528093929190818152602001838380828437600081840152601f19601f820116905080830192505050505050509192919290803573ffffffffffffffffffffffffffffffffffffffff169060200190929190803573ffffffffffffffffffffffffffffffffffffffff16906020019092919080359060200190640100000000811115610b4657600080fd5b820183602082011115610b5857600080fd5b80359060200191846001830284011164010000000083111715610b7a57600080fd5b91908080601f016020809104026020016040519081016040528093929190818152602001838380828437600081840152601f19601f82011690508083019250505050505050919291929080359060200190640100000000811115610bdd57600080fd5b820183602082011115610bef57600080fd5b80359060200191846001830284011164010000000083111715610c1157600080fd5b91908080601f016020809104026020016040519081016040528093929190818152602001838380828437600081840152601f19601f82011690508083019250505050505050919291929080359060200190640100000000811115610c7457600080fd5b820183602082011115610c8657600080fd5b80359060200191846001830284011164010000000083111715610ca857600080fd5b91908080601f016020809104026020016040519081016040528093929190818152602001838380828437600081840152601f19601f820116905080830192505050505050509192919290803560ff169060200190929190803573ffffffffffffffffffffffffffffffffffffffff169060200190929190803573ffffffffffffffffffffffffffffffffffffffff169060200190929190505050611a1d565b005b610e0260048036036020811015610d5f57600080fd5b8101908080359060200190640100000000811115610d7c57600080fd5b820183602082011115610d8e57600080fd5b80359060200191846001830284011164010000000083111715610db057600080fd5b91908080601f016020809104026020016040519081016040528093929190818152602001838380828437600081840152601f19601f820116905080830192505050505050509192919290505050611e84565b005b6060806060806000806005876040518082805190602001908083835b60208310610e435780518252602082019150602081019050602083039250610e20565b6001836020036101000a03801982511681845116808217855250505050505090500191505090815260200160405180910390206000016005886040518082805190602001908083835b60208310610eaf5780518252602082019150602081019050602083039250610e8c565b6001836020036101000a03801982511681845116808217855250505050505090500191505090815260200160405180910390206005016005896040518082805190602001908083835b60208310610f1b5780518252602082019150602081019050602083039250610ef8565b6001836020036101000a038019825116818451168082178552505050505050905001915050908152602001604051809103902060060160058a6040518082805190602001908083835b60208310610f875780518252602082019150602081019050602083039250610f64565b6001836020036101000a038019825116818451168082178552505050505050905001915050908152602001604051809103902060070160058b6040518082805190602001908083835b60208310610ff35780518252602082019150602081019050602083039250610fd0565b6001836020036101000a038019825116818451168082178552505050505050905001915050908152602001604051809103902060080160019054906101000a900473ffffffffffffffffffffffffffffffffffffffff1660058c6040518082805190602001908083835b60208310611080578051825260208201915060208101905060208303925061105d565b6001836020036101000a038019825116818451168082178552505050505050905001915050908152602001604051809103902060090160009054906101000a900473ffffffffffffffffffffffffffffffffffffffff16858054600181600116156101000203166002900480601f01602080910402602001604051908101604052809291908181526020018280546001816001161561010002031660029004801561116c5780601f106111415761010080835404028352916020019161116c565b820191906000526020600020905b81548152906001019060200180831161114f57829003601f168201915b50505050509550848054600181600116156101000203166002900480601f0160208091040260200160405190810160405280929190818152602001828054600181600116156101000203166002900480156112085780601f106111dd57610100808354040283529160200191611208565b820191906000526020600020905b8154815290600101906020018083116111eb57829003601f168201915b50505050509450838054600181600116156101000203166002900480601f0160208091040260200160405190810160405280929190818152602001828054600181600116156101000203166002900480156112a45780601f10611279576101008083540402835291602001916112a4565b820191906000526020600020905b81548152906001019060200180831161128757829003601f168201915b50505050509350828054600181600116156101000203166002900480601f0160208091040260200160405190810160405280929190818152602001828054600181600116156101000203166002900480156113405780601f1061131557610100808354040283529160200191611340565b820191906000526020600020905b81548152906001019060200180831161132357829003601f168201915b5050505050925095509550955095509550955091939550919395565b6000611369600183611fc3565b9050919050565b600061137d600083611fc3565b9050919050565b61138d33611370565b61139657600080fd5b61139f81612055565b50565b6113ab336119f3565b6113b457600080fd5b60016005826040518082805190602001908083835b602083106113ec57805182526020820191506020810190506020830392506113c9565b6001836020036101000a038019825116818451168082178552505050505050905001915050908152602001604051809103902060080160006101000a81548160ff0219169083600281111561143d57fe5b02179055507f3ea707e6edd0cf74fca91798b1efc0fd5dbf0627e3ce3f8d016c7d2d9d4107f6816040518080602001828103825283818151815260200191508051906020019080838360005b838110156114a4578082015181840152602081019050611489565b50505050905090810190601f1680156114d15780820380516001836020036101000a031916815260200191505b509250505060405180910390a150565b6114ea3361135c565b6114f357600080fd5b6114fc816120a6565b50565b611508336120f7565b565b606080600080606060006005876040518082805190602001908083835b6020831061154a5780518252602082019150602081019050602083039250611527565b6001836020036101000a03801982511681845116808217855250505050505090500191505090815260200160405180910390206000016005886040518082805190602001908083835b602083106115b65780518252602082019150602081019050602083039250611593565b6001836020036101000a03801982511681845116808217855250505050505090500191505090815260200160405180910390206001016005896040518082805190602001908083835b6020831061162257805182526020820191506020810190506020830392506115ff565b6001836020036101000a038019825116818451168082178552505050505050905001915050908152602001604051809103902060030160009054906101000a900473ffffffffffffffffffffffffffffffffffffffff1660058a6040518082805190602001908083835b602083106116af578051825260208201915060208101905060208303925061168c565b6001836020036101000a038019825116818451168082178552505050505050905001915050908152602001604051809103902060040160009054906101000a900473ffffffffffffffffffffffffffffffffffffffff1660058b6040518082805190602001908083835b6020831061173c5780518252602082019150602081019050602083039250611719565b6001836020036101000a038019825116818451168082178552505050505050905001915050908152602001604051809103902060020160058c6040518082805190602001908083835b602083106117a85780518252602082019150602081019050602083039250611785565b6001836020036101000a038019825116818451168082178552505050505050905001915050908152602001604051809103902060080160009054906101000a900460ff16858054600181600116156101000203166002900480601f0160208091040260200160405190810160405280929190818152602001828054600181600116156101000203166002900480156118815780601f1061185657610100808354040283529160200191611881565b820191906000526020600020905b81548152906001019060200180831161186457829003601f168201915b50505050509550848054600181600116156101000203166002900480601f01602080910402602001604051908101604052809291908181526020018280546001816001161561010002031660029004801561191d5780601f106118f25761010080835404028352916020019161191d565b820191906000526020600020905b81548152906001019060200180831161190057829003601f168201915b50505050509450818054600181600116156101000203166002900480601f0160208091040260200160405190810160405280929190818152602001828054600181600116156101000203166002900480156119b95780601f1061198e576101008083540402835291602001916119b9565b820191906000526020600020905b81548152906001019060200180831161199c57829003601f168201915b5050505050915095509550955095509550955091939550919395565b6119de336119f3565b6119e757600080fd5b6119f081612148565b50565b6000611a00600283611fc3565b9050919050565b611a1033612199565b565b611a1b336121ea565b565b611a263361135c565b611a2f57600080fd5b611a37612392565b6040518061016001604052808d81526020018c81526020018b81526020018973ffffffffffffffffffffffffffffffffffffffff1681526020018a73ffffffffffffffffffffffffffffffffffffffff16815260200188815260200187815260200186815260200160006002811115611aac57fe5b81526020018473ffffffffffffffffffffffffffffffffffffffff1681526020018373ffffffffffffffffffffffffffffffffffffffff1681525090508060058d6040518082805190602001908083835b60208310611b205780518252602082019150602081019050602083039250611afd565b6001836020036101000a03801982511681845116808217855250505050505090500191505090815260200160405180910390206000820151816000019080519060200190611b6f92919061244f565b506020820151816001019080519060200190611b8c92919061244f565b506040820151816002019080519060200190611ba992919061244f565b5060608201518160030160006101000a81548173ffffffffffffffffffffffffffffffffffffffff021916908373ffffffffffffffffffffffffffffffffffffffff16021790555060808201518160040160006101000a81548173ffffffffffffffffffffffffffffffffffffffff021916908373ffffffffffffffffffffffffffffffffffffffff16021790555060a0820151816005019080519060200190611c5492919061244f565b5060c0820151816006019080519060200190611c7192919061244f565b5060e0820151816007019080519060200190611c8e92919061244f565b506101008201518160080160006101000a81548160ff02191690836002811115611cb457fe5b02179055506101208201518160080160016101000a81548173ffffffffffffffffffffffffffffffffffffffff021916908373ffffffffffffffffffffffffffffffffffffffff1602179055506101408201518160090160006101000a81548173ffffffffffffffffffffffffffffffffffffffff021916908373ffffffffffffffffffffffffffffffffffffffff160217905550905050600060058d6040518082805190602001908083835b60208310611d845780518252602082019150602081019050602083039250611d61565b6001836020036101000a038019825116818451168082178552505050505050905001915050908152602001604051809103902060080160006101000a81548160ff02191690836002811115611dd557fe5b02179055507f1799535f7a29ce07cbb39c3b734f6f1164b1fd38f7f91d0a1253840c7f1e8c448c6040518080602001828103825283818151815260200191508051906020019080838360005b83811015611e3c578082015181840152602081019050611e21565b50505050905090810190601f168015611e695780820380516001836020036101000a031916815260200191505b509250505060405180910390a1505050505050505050505050565b611e8d33611370565b611e9657600080fd5b60026005826040518082805190602001908083835b60208310611ece5780518252602082019150602081019050602083039250611eab565b6001836020036101000a038019825116818451168082178552505050505050905001915050908152602001604051809103902060080160006101000a81548160ff02191690836002811115611f1f57fe5b02179055507fe849b0af4ecf208b975210b68de7f7e7a16da0804e997c5586fd91397ea96f5a816040518080602001828103825283818151815260200191508051906020019080838360005b83811015611f86578082015181840152602081019050611f6b565b50505050905090810190601f168015611fb35780820380516001836020036101000a031916815260200191505b509250505060405180910390a150565b60008073ffffffffffffffffffffffffffffffffffffffff168273ffffffffffffffffffffffffffffffffffffffff161415611ffe57600080fd5b8260000160008373ffffffffffffffffffffffffffffffffffffffff1673ffffffffffffffffffffffffffffffffffffffff16815260200190815260200160002060009054906101000a900460ff16905092915050565b61206060008261223b565b8073ffffffffffffffffffffffffffffffffffffffff167f19ef9a4877199f89440a26acb26895ec02ed86f2df1aeaa90dc18041b892f71f60405160405180910390a250565b6120b160018261223b565b8073ffffffffffffffffffffffffffffffffffffffff167f561138658ca49a8540dc70dcfe64c9026c1c5b9344642242dd6562970f9c127860405160405180910390a250565b6121026002826122e7565b8073ffffffffffffffffffffffffffffffffffffffff167f126174f6cf49c81cdb4a9214c6b8f037bef55b4ec31e4fc776cea2a1c8a88d5960405160405180910390a250565b61215360028261223b565b8073ffffffffffffffffffffffffffffffffffffffff167fddbf200aa634dc3fb81cfd68583dd1040d1c751d335e1d86b631bde3e977fea860405160405180910390a250565b6121a46001826122e7565b8073ffffffffffffffffffffffffffffffffffffffff167f2fed5abf6a80d6dfe30b4895481b2fc5d7dce5f8f7b931832f4a2947d5040c7f60405160405180910390a250565b6121f56000826122e7565b8073ffffffffffffffffffffffffffffffffffffffff167fe9dce8c992623ce791725b21e857e33248d1f190a25b5168313420eebdaae99d60405160405180910390a250565b600073ffffffffffffffffffffffffffffffffffffffff168173ffffffffffffffffffffffffffffffffffffffff16141561227557600080fd5b61227f8282611fc3565b1561228957600080fd5b60018260000160008373ffffffffffffffffffffffffffffffffffffffff1673ffffffffffffffffffffffffffffffffffffffff16815260200190815260200160002060006101000a81548160ff0219169083151502179055505050565b600073ffffffffffffffffffffffffffffffffffffffff168173ffffffffffffffffffffffffffffffffffffffff16141561232157600080fd5b61232b8282611fc3565b61233457600080fd5b60008260000160008373ffffffffffffffffffffffffffffffffffffffff1673ffffffffffffffffffffffffffffffffffffffff16815260200190815260200160002060006101000a81548160ff0219169083151502179055505050565b604051806101600160405280606081526020016060815260200160608152602001600073ffffffffffffffffffffffffffffffffffffffff168152602001600073ffffffffffffffffffffffffffffffffffffffff1681526020016060815260200160608152602001606081526020016000600281111561240f57fe5b8152602001600073ffffffffffffffffffffffffffffffffffffffff168152602001600073ffffffffffffffffffffffffffffffffffffffff1681525090565b828054600181600116156101000203166002900490600052602060002090601f016020900481019282601f1061249057805160ff19168380011785556124be565b828001600101855582156124be579182015b828111156124bd5782518255916020019190600101906124a2565b5b5090506124cb91906124cf565b5090565b6124f191905b808211156124ed5760008160009055506001016124d5565b5090565b9056fea265627a7a72315820a2c8e17a9c9d1d7de0ede222b6011503f3d219a59a660657526a2723b4fefb9364736f6c63430005100032",
  "source": "pragma solidity ^0.5.16;\nimport \"../medicineaccess/Roles.sol\";\nimport \"../medicineaccess/DistributorRole.sol\";\nimport \"../medicineaccess/ManufacturerRole.sol\";\nimport \"../medicineaccess/UserRole.sol\";\nimport \"../medicinecore/ownable.sol\";\n\ncontract main is UserRole, ManufacturerRole, DistributorRole {\n\n  // Define 'owner'\n  address owner;\n\n  // Define a variable called 'batchno' for unique authentication\n  string batchno;\n\n  // Define a public mapping 'medicines' that maps the batchno to an Medicine.\n  mapping (string => Medicine) medicines;\n\n  // Define a public mapping 'medicinesHistory' that maps the UPC to an array of TxHash, \n  // that track its journey through the supply chain -- to be sent from DApp.\n  mapping (string => string[]) medicinesHistory;\n  \n  // Define enum 'State' with the following values:\n  enum State\n  { \n    Made,       // 0\n    Packed,     // 1\n    Sold       // 2\n  }\n\n  State constant defaultState = State.Made;\n\n  // Define a struct 'Medicine' with the following fields:\n  struct Medicine {\n    string  batchno;  //the primary key batchno \n    string  medicineName; //Medicine name\n    string dosage;//dosage\n    address ownerID;  // Metamask-Ethereum address of the current owner as the medicine moves through 3 stages\n    address originManufacturerID; // Metamask-Ethereum address of the Manufacturer\n    string  FactoryName; // Manufacturer Name\n    string  mfgdate;//mfgdate\n    string  expdate; // expdate\n    State   medicineState;  // Product State as represented in the enum above\n    address distributorID;  // Metamask-Ethereum address of the Distributor\n    address userID; // Metamask-Ethereum address of the user\n  }\n\n  // Define 8 events with the same 7 state values and accept 'batchno' as input argument\n  event Made(string _batchno);\n  event Packed(string _batchno);\n  event Sold(string _batchno);\n\n  // Define a modifer that checks to see if msg.sender == owner of the contract\n  modifier onlyOwner() {\n    require(msg.sender == owner);\n    _;\n  }\n\n  // Define a modifer that verifies the Caller\n  modifier verifyCaller (address _address) {\n    require(msg.sender == _address); \n    _;\n  }\n\n  // Define a modifier that checks if an medicine.state of a batchno is Made\n  modifier made(string storage _batchno) {\n    require(medicines[_batchno].medicineState == State.Made);\n    _;\n  }\n  \n  // Define a modifier that checks if an medicine.state of a batchno is Packed\n  modifier packed(string storage _batchno) {\n    require(medicines[_batchno].medicineState == State.Packed);\n\n    _;\n  }\n\n  // Define a modifier that checks if an medicine.state of a batchno is Sold\n  modifier sold(string storage  _batchno) {\n    require(medicines[_batchno].medicineState == State.Sold);\n\n    _;\n  }\n\n  // Define a function 'makeMedicine' that allows a manufacturer to mark a medicine 'Made'\n  function makeMedicine(string memory _batchno, string memory _medicineName,string memory _dosage, address  _originManufacturerID,address _ownerID, string memory _FactoryName, string memory _mfgdate,string memory _expdate,State,address _distributorID,address _userID) public\n  \n  onlyManufacturer\n\n  {\n    // Add the new medicine as part of medicines\n    Medicine memory makeMedicine = Medicine({\n      batchno:_batchno,  \n      medicineName:_medicineName,\n      dosage:_dosage,\n      originManufacturerID:_originManufacturerID,// Metamask-Ethereum address of the Manufacturer\n      ownerID:_ownerID, // Metamask-Ethereum address of the current owner as the medicine moves through 3 stages\n      FactoryName:_FactoryName, // Manufacturer Name\n      mfgdate:_mfgdate,//mfgdate\n      expdate:_expdate,//expdate\n      medicineState: State.Made,\n      distributorID: _distributorID, \n      userID: _userID\n\n      });\n    medicines[_batchno] = makeMedicine;\n    medicines[_batchno].medicineState = State.Made;\n\n//     string batchno;//batchno\n//     address ownerID;  // Metamask-Ethereum address of the current owner as the medicine moves through 8 stages\n//     address originManufacturerID; // Metamask-Ethereum address of the Manufacturer\n//     string  FactoryName; // Manufacturer Name\n//     string  medicineName; // Product Name\n//     string  mfgdate//mfgdate\n//     string  expdate//expdate\n//     State   medicineState;  // Product State as represented in the enum above\n//     address distributorID;  // Metamask-Ethereum address of the Distributor\n//     address userID; // Metamask-Ethereum address of the Patient\n\n\n    // Emit the appropriate event\n\n    emit Made(_batchno);\n  }\n  // Define a function 'packMedicine' that allows a manufacturer to mark an medicine 'Packed'\n  function packMedicine(string  memory _batchno) public\n  onlyDistributor \n  // Call modifier to check if batchno has passed previous supply chain stage\n  //Made(_batchno)\n  // Call modifier to verify caller of this function\n  {\n    // Update the appropriate fields\n    medicines[_batchno].medicineState = State.Packed;\n\n    // Emit the appropriate event\n    emit Packed(_batchno);\n  }\n  function receiveMedicine(string memory _batchno) public \n  onlyUser\n    // Call modifier to check if batchno has passed previous supply chain stage\n    //Packed(_batchno)\n    // Access Control List enforced by calling Smart Contract / DApp\n    {\n    medicines[_batchno].medicineState = State.Sold;\n\n    // Emit the appropriate event\n    emit Sold(_batchno);\n  }\n  function fetchMedicineBufferOne(string memory _batchno) public view returns \n  (\n    string memory batchno,  //the primary key batchno \n    string memory  medicineName, //Medicine name\n    address ownerID,  // Metamask-Ethereum address of the current owner as the medicine moves through 3 stages\n    address originManufacturerID, // Metamask-Ethereum address of the Manufacturer\n    string memory dosage,\n    //string memory FactoryName, // Manufacturer Name\n    //string memory mfgdate,//mfgdate\n    //string memory expdate, // expdate\n    State medicineState\n    ) \n  {\n  // Assign values to the 7 parameters\n  \n\n  return \n  (\n    medicines[_batchno].batchno,\n    medicines[_batchno].medicineName,\n    medicines[_batchno].ownerID,\n    medicines[_batchno].originManufacturerID,\n    medicines[_batchno].dosage,\n    //medicines[_batchno].mfgdate,\n    //medicines[_batchno].expdate,\n    medicines[_batchno].medicineState\n    // medicines[_batchno].\n    );\n}\nfunction fetchMedicineBufferTwo(string memory _batchno) public view returns \n  (\n    string memory batchno,  //the primary key batchno \n    //string memory  medicineName, //Medicine name\n    //address ownerID,  // Metamask-Ethereum address of the current owner as the medicine moves through 3 stages\n    //address originManufacturerID, // Metamask-Ethereum address of the Manufacturer\n    string memory FactoryName, // Manufacturer Name\n    string memory mfgdate,//mfgdate\n    string memory expdate, // expdate\n    //State medicineState,\n    address distributorID,\n    address userID\n    ) \n  {\n  // Assign values to the 7 parameters\n  \n\n  return \n  (\n    medicines[_batchno].batchno,\n    //medicines[_batchno].medicineName,\n    //medicines[_batchno].ownerID,\n    //medicines[_batchno].originManufacturerID,\n    medicines[_batchno].FactoryName,\n    medicines[_batchno].mfgdate,\n    medicines[_batchno].expdate,\n    //medicines[_batchno].medicineState,\n    medicines[_batchno].distributorID,\n    medicines[_batchno].userID\n    // medicines[_batchno].\n    );\n}\n}\n",
  "sourcePath": "C:\\Users\\HP\\Desktop\\main\\contracts\\medicinebase\\main.sol",
  "compiler": {
    "name": "solc",
    "version": "0.5.16+commit.9c3226ce.Emscripten.clang"
  },
  "schemaVersion": "3.4.3",
  "updatedAt": "2022-01-10T19:34:16.358Z",
  "networkType": "ethereum",
  "devdoc": {
    "methods": {}
  },
  "userdoc": {
    "methods": {}
  }
}