{
  "contractName": "UserRole",
  "abi": [
    {
      "inputs": [],
      "payable": false,
      "stateMutability": "nonpayable",
      "type": "constructor"
    },
    {
      "anonymous": false,
      "inputs": [
        {
          "indexed": true,
          "internalType": "address",
          "name": "account",
          "type": "address"
        }
      ],
      "name": "UserAdded",
      "type": "event"
    },
    {
      "anonymous": false,
      "inputs": [
        {
          "indexed": true,
          "internalType": "address",
          "name": "account",
          "type": "address"
        }
      ],
      "name": "UserRemoved",
      "type": "event"
    },
    {
      "constant": true,
      "inputs": [
        {
          "internalType": "address",
          "name": "account",
          "type": "address"
        }
      ],
      "name": "isUser",
      "outputs": [
        {
          "internalType": "bool",
          "name": "",
          "type": "bool"
        }
      ],
      "payable": false,
      "stateMutability": "view",
      "type": "function"
    },
    {
      "constant": false,
      "inputs": [
        {
          "internalType": "address",
          "name": "account",
          "type": "address"
        }
      ],
      "name": "addUser",
      "outputs": [],
      "payable": false,
      "stateMutability": "nonpayable",
      "type": "function"
    },
    {
      "constant": false,
      "inputs": [],
      "name": "renounceUser",
      "outputs": [],
      "payable": false,
      "stateMutability": "nonpayable",
      "type": "function"
    }
  ],
  "bytecode": "0x608060405234801561001057600080fd5b506100203361002560201b60201c565b6101c4565b61003a60008261008060201b6102611760201c565b8073ffffffffffffffffffffffffffffffffffffffff167f19ef9a4877199f89440a26acb26895ec02ed86f2df1aeaa90dc18041b892f71f60405160405180910390a250565b600073ffffffffffffffffffffffffffffffffffffffff168173ffffffffffffffffffffffffffffffffffffffff1614156100ba57600080fd5b6100ca828261013260201b60201c565b156100d457600080fd5b60018260000160008373ffffffffffffffffffffffffffffffffffffffff1673ffffffffffffffffffffffffffffffffffffffff16815260200190815260200160002060006101000a81548160ff0219169083151502179055505050565b60008073ffffffffffffffffffffffffffffffffffffffff168273ffffffffffffffffffffffffffffffffffffffff16141561016d57600080fd5b8260000160008373ffffffffffffffffffffffffffffffffffffffff1673ffffffffffffffffffffffffffffffffffffffff16815260200190815260200160002060009054906101000a900460ff16905092915050565b6103ed806101d36000396000f3fe608060405234801561001057600080fd5b50600436106100415760003560e01c80634209fff114610046578063421b2d8b146100a2578063e5e93deb146100e6575b600080fd5b6100886004803603602081101561005c57600080fd5b81019080803573ffffffffffffffffffffffffffffffffffffffff1690602001909291905050506100f0565b604051808215151515815260200191505060405180910390f35b6100e4600480360360208110156100b857600080fd5b81019080803573ffffffffffffffffffffffffffffffffffffffff169060200190929190505050610104565b005b6100ee610122565b005b60006100fd60008361012d565b9050919050565b61010d336100f0565b61011657600080fd5b61011f816101bf565b50565b61012b33610210565b565b60008073ffffffffffffffffffffffffffffffffffffffff168273ffffffffffffffffffffffffffffffffffffffff16141561016857600080fd5b8260000160008373ffffffffffffffffffffffffffffffffffffffff1673ffffffffffffffffffffffffffffffffffffffff16815260200190815260200160002060009054906101000a900460ff16905092915050565b6101ca600082610261565b8073ffffffffffffffffffffffffffffffffffffffff167f19ef9a4877199f89440a26acb26895ec02ed86f2df1aeaa90dc18041b892f71f60405160405180910390a250565b61021b60008261030d565b8073ffffffffffffffffffffffffffffffffffffffff167fe9dce8c992623ce791725b21e857e33248d1f190a25b5168313420eebdaae99d60405160405180910390a250565b600073ffffffffffffffffffffffffffffffffffffffff168173ffffffffffffffffffffffffffffffffffffffff16141561029b57600080fd5b6102a5828261012d565b156102af57600080fd5b60018260000160008373ffffffffffffffffffffffffffffffffffffffff1673ffffffffffffffffffffffffffffffffffffffff16815260200190815260200160002060006101000a81548160ff0219169083151502179055505050565b600073ffffffffffffffffffffffffffffffffffffffff168173ffffffffffffffffffffffffffffffffffffffff16141561034757600080fd5b610351828261012d565b61035a57600080fd5b60008260000160008373ffffffffffffffffffffffffffffffffffffffff1673ffffffffffffffffffffffffffffffffffffffff16815260200190815260200160002060006101000a81548160ff021916908315150217905550505056fea265627a7a72315820435071709b104e0d4be16b5a600f2bc54a6b46300b3679513f7e10f312be3c0a64736f6c63430005100032",
  "source": "pragma solidity ^0.5.16;\n\n// Import the library 'Roles'\nimport \"./Roles.sol\";\n//import \"openzeppelin-solidity/contracts/access/Roles.sol\";\n\n// Define a contract 'UserRole' to manage this role - add, remove, check\ncontract UserRole {\n  using Roles for Roles.Role;\n\n  // Define 2 events, one for Adding, and other for Removing\n  event UserAdded(address indexed account);\n  event UserRemoved(address indexed account);\n\n  // Define a struct 'User' by inheriting from 'Roles' library, struct Role\n  Roles.Role private User;\n\n  // In the constructor make the address that deploys this contract the 1st patient\n  constructor() public {\n    _addUser(msg.sender);\n  }\n\n  // Define a modifier that checks to see if msg.sender has the appropriate role\n  modifier onlyUser() {\n    require(isUser(msg.sender));\n    _;\n  }\n\n  // Define a function 'isUser' to check this role\n  function isUser(address account) public view returns (bool) {\n    return Roles.has(User, account);\n  }\n\n  // Define a function 'addUser' that adds this role\n  function addUser(address account) public onlyUser {\n    _addUser(account);\n  }\n\n  // Define a function 'renounceUser' to renounce this role\n  function renounceUser() public {\n    _removeUser(msg.sender);\n  }\n\n  // Define an internal function '_addUser' to add this role, called by 'addUser'\n  function _addUser(address account) internal {\n    Roles.add(User, account);\n    emit UserAdded(account);\n  }\n\n  // Define an internal function '_removeUser' to remove this role, called by 'removeUser'\n  function _removeUser(address account) internal {\n    Roles.remove(User, account);\n    emit UserRemoved(account);\n  }\n}",
  "sourcePath": "C:\\Users\\HP\\Desktop\\main\\contracts\\medicineaccess\\UserRole.sol",
  "compiler": {
    "name": "solc",
    "version": "0.5.16+commit.9c3226ce.Emscripten.clang"
  },
  "schemaVersion": "3.4.3",
  "updatedAt": "2022-01-10T19:34:16.346Z",
  "networkType": "ethereum",
  "devdoc": {
    "methods": {}
  },
  "userdoc": {
    "methods": {}
  }
}